:100D0F0020202D20202D20200020203A20203A20A6
:070D1F0020204441593A0075
:10097E00120D517BFF7A0D790F7D017F01120CB1A3
:10098E007BFF7A0D79187D017F02120CB1120D9248
:10099E00120800120A0FE518FB7A00750C027D0191
:1009AE007F01120CF2E519FB7A00750C027D047FB3
:1009BE0001120CF2E51AFB7A00750C027D077F011D
:1009CE00120CF2E51BFB7A00750C027D017F021200
:1009DE000CF2E51CFB7A00750C027D047F02120CF2
:1009EE00F2E51DFB7A00750C027D077F02120CF2F8
:1009FE00E51EFB7A00750C017D0E7F02120CF28053
:010A0E009255
:060D6500C2A58F80D2A799
:080D6B007F027EEFDEFEDFFCDB
:010D7300225D
:0A0D7400C2A6120D65C2A7020D6BA6
:100CD400CFCDCFCECCCE1209297C007D0A120929B2
:040CE400ED2430FFCC
:0A0CE800D2A6120D65C2A7020D6B23
:100D2600AE07BE0104ED148006BE0209ED243F4461
:060D360080FF120D742283
:100D51007F38120D747F0C120D747F06120D747F93
:040D610001020D740A
:0A0D7E00AC03120D26AF04020CE8CE
:060CB1008B088A09890A84
:100CB700120D26E4FDAB08AA09A90A8D82758300E7
:0C0CC7001208EAFF6006120CE80D80E93C
:010CD30022FE
:0C0C7E007F0AEA24FFFDE434FFFC7E0046
:080C8A008E0D8F0E8C0F8D10F2
:100C92007F017E00E4FBEBC39510E50F6480F874DE
:0E0CA2008098500AAC0DAD0E1209170B80E8B9
:010CB0002221
:040CF2008A0A8B0BD4
:100CF600120D26AA0CEAD39400400D120C7EAC0A03
:080D0600AD0B120CD41A80EDB4
:010D0E0022C2
:100BD300120D26C3EA64809480400B7F2B120CE82D
:100BE3008A168B17800E7F2D120CE8C3E49BF51732
:100BF300E49AF516AA15EAD39400400D120C7EACC4
:090C030016AD17120CD41A80ED95
:010C0C0022C5
:040C0D008A218B228B
:100C1100120D26AA23EAD3940040297F10120C80DA
:100C2100AC21AD22CFCDCFCECCCE120929EF540FBE
:100C3100FEC3940AEE5004243080022437FF120CC4
:040C4100E81A80D15C
:010C4500228C
:040C46008A268B2748
:100C4A00120D26AA28EAD394004028EA24FFFDE4DC
:100C5A0034FFFC7F027E00120C8AAC26AD27CFCD72
:100C6A00CFCECCCE120929EF54012430FF120CE862
:030C7A001A80D20B
:010C7D002254
:090D8800071819040417083705C7
:050D9200C2B5C2B6224B
:060B280025F0FDEC3EFC8F
:060B2E008C088D09AB07E5
:100B3400D2B5E4FD74017E00A805088005C333CE58
:100B440033CED8F9FFEBF582EF558224FF92B4D26D
:100B5400B6C2B60DBD08DDE4FD74017E00A805082B
:100B64008005C333CE33CED8F9FFE5085EFEE50930
:100B74005F4E24FF92B4D2B6C2B60DBD08DBC2B537
:010B8400224E
:020B8500AD07BA
:100B8700E4F9430501D2B5FB74017E00A803088090
:100B970005C333CE33CED8F9FFEDF582EF55822466
:100BA700FF92B4C2B6D2B60BBB08DDE4FBD2B6C225
:100BB700B630B40D7401A803088002C333D8FC42D1
:0B0BC700010BBB08E8C2B5C2B4AF01CF
:010BD2002200
:10080000E4FDFC7F8E120B2EE51875F00A8475F05E
:1008100010A4FFAEF0E51875F00A84EF7F8C120B80
:1008200028E51975F00A8475F010A4FFAEF0E519FB
:1008300075F00A847C00EF7F88120B28E51A75F0AA
:100840000A8475F010A4FFAEF0E51A75F00A847CF6
:1008500000EF25F0FDEC3EFC7F86120B2EE51B75AC
:10086000F00A8475F010A4FFAEF0E51B75F00A8461
:100870007C00EF25F0FDEC3EFC7F84120B2EE51C86
:1008800075F00A8475F010A4FFAEF0E51C75F00A4F
:10089000847C00EF25F0FDEC3EFC7F82120B2EE500
:1008A0001D75F00A8475F010A4FFAEF0E51D75F01B
:1008B0000A847C00EF25F0FDEC3EFC7F80120B2EBD
:1008C000E51E75F00A8475F010A4FFAEF0E51E7504
:1008D000F00A847C00EF25F0FDEC3EFC7F8A120BD1
:0A08E0002E7D807C007F8E020B2E1F
:100A0F007F8C120B85EFC4540F75F00AA4FEEF54C0
:100A1F000F2EF5187F88120B85EFC4540F75F00A4F
:100A2F00A4FEEF540F2EF5197F86120B85EFC454D9
:100A3F000F75F00AA4FEEF540F2EF51A7F84120BD8
:100A4F0085EFC4540F75F00AA4FEEF540F2EF51B5B
:100A5F007F82120B85EFC4540F75F00AA4FEEF547A
:100A6F000F2EF51C7F80120B85EFC4540F75F00A03
:100A7F00A4FEEF540F2EF51D7F8A120B85EFC45481
:0C0A8F000F75F00AA4FEEF540F2EF51EA8
:010A9B002238
:100D3C00EF1FAC0670011E4C600A7D027CEFDCFEDE
:040D4C00DDFC80EC5E
:010D50002280
:03000000020A9C55
:0C0A9C00787FE4F6D8FD75812B020AE398
:1008EA00BB010CE58229F582E5833AF583E02250C3
:1008FA0006E92582F8E622BBFE06E92582F8E2220D
:0D090A00E58229F582E5833AF583E4932226
:10091700EF8DF0A4A8F0CF8CF0A428CE8DF0A42EF4
:02092700FE22AE
:10092900BC000BBE0029EF8DF084FFADF022E4CCB2
:10093900F875F008EF2FFFEE33FEEC33FCEE9DEC7B
:10094900984005FCEE9DFE0FD5F0E9E4CEFD22EDC1
:10095900F8F5F0EE8420D21CFEADF075F008EF2F0B
:10096900FFED33FD4007985006D5F0F222C398FDFC
:050979000FD5F0EA2299
:100AA80002097EE493A3F8E493A34003F68001F2DD
:100AB80008DFF48029E493A3F85407240CC8C3334F
:100AC800C4540F4420C8834004F456800146F6DF1E
:100AD800E4800B0102040810204080900D88E47E19
:100AE800019360BCA3FF543F30E509541FFEE49313
:100AF800A360010ECF54C025E060A840B8E493A3DA
:100B0800FAE493A3F8E493A3C8C582C8CAC583CA04
:100B1800F0A3C8C582C8CAC583CADFE9DEE780BEBC
:010D91000061
:00000001FF
