:080B17007F6C7E91DEFEDFFC25
:010B1F0022B3
:0C0AEA007F057E347DC3DDFEDEFCDFFAFC
:010AF60022DD
:10080000120AC7750C02AB26AA257D017F01120AC8
:100810009420B1600526E52670020525750C02FBC3
:10082000AA257D017F01120A94120AEA20B12B1237
:100830000B1720B1080526E52670020525E526647C
:100840006445257004F525F526750C02AB26AA250E
:100850007D017F01120A9430B1D5E52664644525F7
:100860007004F525F526750C02AB26AA257D017FBF
:1008700001120A9420B09AE52615267002152575F6
:100880000C02AB26AA257D017F01120A94120AEA06
:1008900020B02E120B1720B008E526152670021581
:1008A00025C3E52564809480500675250075266370
:1008B000750C02AB26AA257D017F01120A9430B087
:1008C000D2C3E525648094805006752500752663A3
:1008D000750C02AB26AA257D017F01120A9402083D
:0108E0001106
:060ADB00C2A58F80D2A726
:080AE1007F027EEFDEFEDFFC68
:010AE90022EA
:0A0B0300C2A6120ADBC2A7020AE133
:100A7600CFCDCFCECCCE1209207C007D0A12092024
:040A8600ED2430FF2C
:0A0A8A00D2A6120ADBC2A7020AE19D
:100AB100AE07BE0104ED148006BE0209ED243F44D9
:060AC10080FF120B03226E
:100AC7007F38120B037F0C120B037F06120B037F79
:040AD70001020B030A
:0A0B0D00AC03120AB1AF04020A8A19
:060A53008B228A23892496
:100A5900120AB1E4FDAB22AA23A9248D8275830071
:0C0A69001208E1FF6006120A8A0D80E905
:010A7500225E
:0C0A20007F0AEA24FFFDE434FFFC7E00A6
:080A2C008E0D8F0E8C0F8D1052
:100A34007F017E00E4FBEBC39510E50F6480F8743E
:0E0A44008098500AAC0DAD0E12090E0B80E822
:010A52002281
:040A94008A0A8B0B34
:100A9800120AB1AA0CEAD39400400D120A20AC0A3B
:080AA800AD0B120A761A80ED75
:010AB0002223
:10097500120AB1C3EA64809480400B7F2B120A8A65
:100985008A168B17800E7F2D120A8AC3E49BF517F2
:10099500E49AF516AA15EAD39400400D120A20AC84
:0909A50016AD17120A761A80ED56
:0109AE002226
:0409AF008A1A8B1BFA
:1009B300120AB1AA1CEAD3940040297F10120A221A
:1009C300AC1AAD1BCFCDCFCECCCE120920EF540F36
:1009D300FEC3940AEE5004243080022437FF120A27
:0409E3008A1A80D11B
:0109E70022ED
:0409E8008A1F8B20B7
:1009EC00120AB1AA21EAD394004028EA24FFFDE4BC
:1009FC0034FFFC7F027E00120A2CAC1FAD20CFCD41
:100A0C00CFCECCCE120920EF54012430FF120A8A2B
:030A1C001A80D26B
:010A1F0022B4
:03000000020AF7FA
:0C0AF700787FE4F6D8FD75812602080027
:1008E100BB010CE58229F582E5833AF583E02250CC
:1008F10006E92582F8E622BBFE06E92582F8E22216
:0D090100E58229F582E5833AF583E493222F
:10090E00EF8DF0A4A8F0CF8CF0A428CE8DF0A42EFD
:02091E00FE22B7
:10092000BC000BBE0029EF8DF084FFADF022E4CCBB
:10093000F875F008EF2FFFEE33FEEC33FCEE9DEC84
:10094000984005FCEE9DFE0FD5F0E9E4CEFD22EDCA
:10095000F8F5F0EE8420D21CFEADF075F008EF2F14
:10096000FFED33FD4007985006D5F0F222C398FD05
:050970000FD5F0EA22A2
:00000001FF
