:10089400120AE77D0C7C007F01120A1C7F0A7E008D
:1008A400120AD27D0D7C007F02120A1C7F0A7E0090
:1008B400120AD27F011209C38F257F021209C38F46
:1008C40026E525FB7A00750C037D017F01120A9F42
:1008D400E526FB7A00750C037D017F02120A9F80D6
:0108E400FE15
:060AFB00C2A58F80D2A706
:080B01007F027EEFDEFEDFFC47
:010B090022C9
:0A0B2200C2A6120AFBC2A7020B01D3
:100A6300CFCDCFCECCCE12083F7C007D0A12083FFB
:040A7300ED2430FF3F
:0A0A7700D2A6120AFBC2A7020B016F
:100ABC00AE07BE0104ED148006BE0209ED243F44CE
:060ACC0080FF120B222244
:100AE7007F38120B227F0C120B227F06120B227FFC
:040AF70001020B22CB
:0A0B2C00AC03120ABCAF04020A7702
:060A40008B228A238924A9
:100A4600120ABCE4FDAB22AA23A9248D8275830079
:0C0A5600120800FF6006120A770D80E90C
:010A62002271
:0C0990007F0AEA24FFFDE434FFFC7E0037
:08099C008E0D8F0E8C0F8D10E3
:1009A4007F017E00E4FBEBC39510E50F6480F874CF
:0E09B4008098500AAC0DAD0E12082D0B80E895
:0109C2002212
:040A9F008A0A8B0B29
:100AA300120ABCAA0CEAD39400400D120990AC0AB6
:080AB300AD0B120A631A80ED7D
:010ABB002218
:1008E500120ABCC3EA64809480400B7F2B120A77FE
:1008F5008A168B17800E7F2D120A77C3E49BF51796
:10090500E49AF516AA15EAD39400400D120990ACA5
:0909150016AD17120A631A80EDF9
:01091E0022B6
:04091F008A1A8B1B8A
:10092300120ABCAA1CEAD3940040297F1012099230
:10093300AC1AAD1BCFCDCFCECCCE12083FEF540FA8
:10094300FEC3940AEE5004243080022437FF120AB7
:04095300771A80D1BE
:01095700227D
:040958008A1F8B2047
:10095C00120ABCAA21EAD394004028EA24FFFDE441
:10096C0034FFFC7F027E0012099CAC1FAD20CFCD62
:10097C00CFCECCCE12083FEF54012430FF120A77B1
:03098C001A80D2FC
:01098F002245
:100AD200EF1FAC0670011E4C600A7D027CEFDCFE4B
:040AE200DDFC80ECCB
:010AE60022ED
:100A1C008F088C098D0A120B407FA01209F3120B60
:100A2C000AAF081209F3120B0AAF0A1209F3120BE0
:040A3C000A020B4956
:0209C3008F089B
:1009C500120B407FA01209F3120B0AAF081209F3AC
:1009D500120B0A120B407FA11209F3120B0A120A1D
:0D09E500818F097F01120B36120B49AF09FB
:0109F20022E2
:090B4000D2A0D2A1C2A0C2A122E0
:070B4900C2A0D2A1D2A0223C
:0209F300AD074E
:1009F500E4FB74807E00A803088006CEA2E713CE30
:100A050013D8F8FFEDF582EF558224FF92A0D2A10D
:060A1500C2A10BBB08DCCE
:010A1B0022B8
:100A8100E4FFD2A0FED2A130A00D7480A806088098
:0D0A910002C313D8FC4207C2A10EBE08E844
:010A9E002235
:0A0B3600EF24FF92A0D2A1C2A12279
:0B0B0A00D2A0D2A1A2A0E433FFC2A140
:010B150022BD
:03000000020B16DA
:0C0B1600787FE4F6D8FD75812602089473
:10080000BB010CE58229F582E5833AF583E02250AD
:1008100006E92582F8E622BBFE06E92582F8E222F7
:0D082000E58229F582E5833AF583E4932211
:10082D00EF8DF0A4A8F0CF8CF0A428CE8DF0A42EDF
:02083D00FE2299
:10083F00BC000BBE0029EF8DF084FFADF022E4CC9D
:10084F00F875F008EF2FFFEE33FEEC33FCEE9DEC66
:10085F00984005FCEE9DFE0FD5F0E9E4CEFD22EDAC
:10086F00F8F5F0EE8420D21CFEADF075F008EF2FF6
:10087F00FFED33FD4007985006D5F0F222C398FDE7
:05088F000FD5F0EA2284
:00000001FF
