:100AEF00150880402010080402010204081020405D
:070AFF0080402010080402F2
:03092000120B694E
:10092300E4F536F537AF37E5342F2408F8E6FD7CD8
:1009330000120A920537E53770020536C39408E5BD
:10094300366480948040DE0535E535D3941E40D06F
:0F0953000534E4F535E534D3940D40C4E4F534B0
:0209620080BF54
:060B4600C2A58F80D2A7BA
:080B4C007F027EEFDEFEDFFCFC
:010B5400227E
:0A0B5500C2A6120B46C2A7020B4C09
:100AB400CFCDCFCECCCE12083F7C007D0A12083FAA
:040AC400ED2430FFEE
:0A0AC800D2A6120B46C2A7020B4C87
:100B0700AE07BE0104ED148006BE0209ED243F4482
:060B170080FF120B5522C5
:100B32007F38120B557F0C120B557F06120B557F17
:040B420001020B554C
:0A0B5F00AC03120B07AF04020AC832
:060A6F008B3C8A3D893E2C
:100A7500120B07E4FDAB3CAA3DA93E8D82758300B0
:0C0A8500120800FF6006120AC80D80E98C
:010A91002242
:0C0A0F007F0AEA24FFFDE434FFFC7E00B7
:080A1B008E388F398C3A8D3BB7
:100A23007F017E00E4FBEBC3953BE53A6480F874F9
:0E0A33008098500AAC38AD3912082D0B80E8BF
:010A41002292
:040AD2008A268B27BE
:100AD600120B07AA28EAD39400400D120A0FAC267F
:080AE600AD27120AB41A80EDDD
:010AEE0022E5
:10096400120B07C3EA64809480400B7F2B120AC8E1
:100974008A228B23800E7F2D120AC8C3E49BF523A1
:10098400E49AF522AA21EAD39400400D120A0FAC8E
:0909940022AD23120AB41A80ED11
:01099D002237
:04099E008A2B8B2CE9
:1009A200120B07AA2DEAD3940040297F10120A11D4
:1009B200AC2BAD2CCFCDCFCECCCE12083FEF540F07
:1009C200FEC3940AEE5004243080022437FF120A38
:0409D200C81A80D1EE
:0109D60022FE
:0409D7008A308B31A6
:1009DB00120B07AA32EAD394004028EA24FFFDE465
:1009EB0034FFFC7F027E00120A1BAC30AD31CFCD41
:1009FB00CFCECCCE12083FEF54012430FF120AC8E1
:030A0B001A80D27C
:010A0E0022C5
:100B1D00EF1FAC0670011E4C600A7D027CEFDCFEFF
:040B2D00DDFC80EC7F
:010B310022A1
:020A4200AD07FE
:100A4400E4FB74807E00A803088006CEA2E713CEE0
:100A540013D8F8FFEDF582EF558224FF92B4D2B695
:0A0A6400C2B60BBB08DCD2B5C2B568
:010A6E002265
:100A9200AA07AF05120A42AF027480A807088002B3
:100AA200C313D8FCF4F5807F017E00120B1D758004
:020AB200FF2221
:050B6900C2B6C2B52276
:030000000208945F
:0C089400787FE4F6D8FD75813E0208DB99
:10080000BB010CE58229F582E5833AF583E02250AD
:1008100006E92582F8E622BBFE06E92582F8E222F7
:0D082000E58229F582E5833AF583E4932211
:10082D00EF8DF0A4A8F0CF8CF0A428CE8DF0A42EDF
:02083D00FE2299
:10083F00BC000BBE0029EF8DF084FFADF022E4CC9D
:10084F00F875F008EF2FFFEE33FEEC33FCEE9DEC66
:10085F00984005FCEE9DFE0FD5F0E9E4CEFD22EDAC
:10086F00F8F5F0EE8420D21CFEADF075F008EF2FF6
:10087F00FFED33FD4007985006D5F0F222C398FDE7
:05088F000FD5F0EA2284
:1008A000020920E493A3F8E493A34003F68001F245
:1008B00008DFF48029E493A3F85407240CC8C33359
:1008C000C4540F4420C8834004F456800146F6DF28
:1008D000E4800B0102040810204080900AEFE47EBF
:1008E000019360BCA3FF543F30E509541FFEE4931D
:1008F000A360010ECF54C025E060A840B8E493A3E4
:10090000FAE493A3F8E493A3C8C582C8CAC583CA0E
:10091000F0A3C8C582C8CAC583CADFE9DEE780BEC6
:010B060000EE
:00000001FF
