:0E0A4E00E4FEEEC39F50077D19DDFE0E80F41E
:010A5C002277
:10089400E4FBE4FCC2A1AF03120A4ED2A1C3746408
:1008A4009BFF120A4E0CBC14EB0BBB64E5E4FBEBA0
:1008B400C3946450DBE4FCC2A1C374649BFF120ABA
:0F08C4004ED2A1AF03120A4E0CBC14EB0B80E016
:060A5D00C2A58F80D2A7A4
:080A63007F027EEFDEFEDFFCE6
:010A6B002268
:0A0A7800C2A6120A5DC2A7020A63BB
:1009D400CFCDCFCECCCE12083F7C007D0A12083F8B
:0409E400ED2430FFCF
:0A09E800D2A6120A5DC2A7020A633C
:100A0F00AE07BE0104ED148006BE0209ED243F447B
:060A1F0080FF120A78229C
:100A3A007F38120A787F0C120A787F06120A787FAA
:040A4A0001020A7823
:0A0A8200AC03120A0FAF040209E8EA
:0609B1008B228A23892439
:1009B700120A0FE4FDAB22AA23A9248D82758300B6
:0C09C700120800FF60061209E80D80E92C
:0109D3002201
:0C097E007F0AEA24FFFDE434FFFC7E0049
:08098A008E1E8F1F8C208D21B1
:100992007F017E00E4FBEBC39521E5206480F874BF
:0E09A2008098500AAC1EAD1F12082D0B80E885
:0109B0002224
:0409F2008A118B12C9
:1009F600120A0FAA13EAD39400400D12097EAC1115
:080A0600AD121209D41A80EDB3
:010A0E0022C5
:1008D300120A0FC3EA64809480400B7F2B1209E84D
:1008E3008A0D8B0E800E7F2D1209E8C3E49BF50E53
:1008F300E49AF50DAA0CEAD39400400D12097EACDC
:090903000DAD0E1209D41A80EDAD
:01090C0022C8
:04090D008A168B17A4
:10091100120A0FAA18EAD3940040297F1012098005
:10092100AC16AD17CFCDCFCECCCE12083FEF540FC2
:10093100FEC3940AEE5004243080022437FF1209CA
:04094100E81A80D15F
:01094500228F
:040946008A1B8B1C61
:10094A00120A0FAA1DEAD394004028EA24FFFDE404
:10095A0034FFFC7F027E0012098AAC1BAD1CCFCD8E
:10096A00CFCECCCE12083FEF54012430FF1209E853
:03097A001A80D20E
:01097D002257
:100A2500EF1FAC0670011E4C600A7D027CEFDCFEF8
:040A3500DDFC80EC78
:010A3900229A
:03000000020A6C85
:0C0A6C00787FE4F6D8FD75812402089420
:10080000BB010CE58229F582E5833AF583E02250AD
:1008100006E92582F8E622BBFE06E92582F8E222F7
:0D082000E58229F582E5833AF583E4932211
:10082D00EF8DF0A4A8F0CF8CF0A428CE8DF0A42EDF
:02083D00FE2299
:10083F00BC000BBE0029EF8DF084FFADF022E4CC9D
:10084F00F875F008EF2FFFEE33FEEC33FCEE9DEC66
:10085F00984005FCEE9DFE0FD5F0E9E4CEFD22EDAC
:10086F00F8F5F0EE8420D21CFEADF075F008EF2FF6
:10087F00FFED33FD4007985006D5F0F222C398FDE7
:05088F000FD5F0EA2284
:00000001FF
