:0209C000AD0781
:1009C200E4FB74807E00A803088006CEA2E713CE63
:1009D20013D8F8FFEDF582EF558224FF92B4D2B618
:0A09E200C2B60BBB08DCD2B5C2B5EB
:0109EC0022E8
:100A1000AA07AF051209C0AF027480A807088002B8
:100A2000C313D8FCF4F5807F017E00120A83758021
:020A3000FF22A3
:10089400C2B6C2B57D817C00E4FF120A107D427CA1
:1008A400007F01120A107D247C007F02120A107D51
:1008B400187C007F03120A107D187C007F04120A42
:1008C400107D247C007F05120A107D427C007F0687
:0E08D400120A107D817C007F07120A1080B688
:060AAC00C2A58F80D2A755
:080AB2007F027EEFDEFEDFFC97
:010ABA002219
:0A0AC700C2A6120AACC2A7020AB2CE
:100A3200CFCDCFCECCCE12083F7C007D0A12083F2C
:040A4200ED2430FF70
:0A0A4600D2A6120AACC2A7020AB23F
:100A6D00AE07BE0104ED148006BE0209ED243F441D
:060A7D0080FF120AC722EF
:100A98007F38120AC77F0C120AC77F06120AC77F5F
:040AA80001020AC776
:0A0AD100AC03120A6DAF04020A46DE
:0609ED008B228A238924FD
:1009F300120A6DE4FDAB22AA23A9248D827583001C
:0C0A0300120800FF6006120A460D80E990
:010A0F0022C4
:0C098D007F0AEA24FFFDE434FFFC7E003A
:080999008E1E8F1F8C208D21A2
:1009A1007F017E00E4FBEBC39521E5206480F874B0
:0E09B1008098500AAC1EAD1F12082D0B80E876
:0109BF002215
:040A50008A118B126A
:100A5400120A6DAA13EAD39400400D12098DAC1149
:080A6400AD12120A321A80EDF6
:010A6C002267
:1008E200120A6DC3EA64809480400B7F2B120A4681
:1008F2008A0D8B0E800E7F2D120A46C3E49BF50EE5
:10090200E49AF50DAA0CEAD39400400D12098DACBD
:090912000DAD0E120A321A80ED3F
:01091B0022B9
:04091C008A168B1795
:10092000120A6DAA18EAD3940040297F1012098F89
:10093000AC16AD17CFCDCFCECCCE12083FEF540FB3
:10094000FEC3940AEE5004243080022437FF120ABA
:04095000461A80D1F2
:010954002280
:040955008A1B8B1C52
:10095900120A6DAA1DEAD394004028EA24FFFDE497
:1009690034FFFC7F027E00120999AC1BAD1CCFCD70
:10097900CFCECCCE12083FEF54012430FF120A46E5
:030989001A80D2FF
:01098C002248
:100A8300EF1FAC0670011E4C600A7D027CEFDCFE9A
:040A9300DDFC80EC1A
:010A9700223C
:03000000020ABB36
:0C0ABB00787FE4F6D8FD758124020894D1
:10080000BB010CE58229F582E5833AF583E02250AD
:1008100006E92582F8E622BBFE06E92582F8E222F7
:0D082000E58229F582E5833AF583E4932211
:10082D00EF8DF0A4A8F0CF8CF0A428CE8DF0A42EDF
:02083D00FE2299
:10083F00BC000BBE0029EF8DF084FFADF022E4CC9D
:10084F00F875F008EF2FFFEE33FEEC33FCEE9DEC66
:10085F00984005FCEE9DFE0FD5F0E9E4CEFD22EDAC
:10086F00F8F5F0EE8420D21CFEADF075F008EF2FF6
:10087F00FFED33FD4007985006D5F0F222C398FDE7
:05088F000FD5F0EA2284
:00000001FF
