:060F32002D002E002B0033
:100C4E00120ED0120F05120DB38F1C8E1B8D1A8C27
:100C5E0019E4FFFEFDFCAB1CAA1BA91AA819120968
:100C6E00A67BFF50067A0F793280047A0F79367D93
:100C7E00017F02120DDF7BFF7A0F79347D047F0234
:100C8E00120DDFAF1CAE1BAD1AAC19120A5DAB070D
:100C9E00AA06750C027D027F02120E20E4FFFE7D75
:100CAE00C87C42AB1CAA1BA91AA819120800120A6A
:100CBE005DE47B64FAF9F8120BAE750C027D057FCC
:070CCE0002120E20020C517E
:060EF600C2A58F80D2A707
:080EFC007F027EEFDEFEDFFC49
:010F040022CA
:0A0F1E00C2A6120EF6C2A7020EFCD6
:100E0200CFCDCFCECCCE120B1D7C007D0A120B1D96
:040E1200ED2430FF9C
:0A0E1600D2A6120EF6C2A7020EFCCF
:100EA500AE07BE0104ED148006BE0209ED243F44E1
:060EB50080FF120F1E2257
:100ED0007F38120F1E7F0C120F1E7F06120F1E7F0F
:040EE00001020F1EDE
:0A0F2800AC03120EA5AF04020E1672
:060DDF008B088A09890A55
:100DE500120EA5E4FDAB08AA09A90A8D8275830038
:0C0DF500120ADEFF6006120E160D80E9E7
:010E010022CE
:0C0D80007F0AEA24FFFDE434FFFC7E0043
:080D8C008E0D8F0E8C0F8D10EF
:100D94007F017E00E4FBEBC39510E50F6480F874DB
:0E0DA4008098500AAC0DAD0E120B0B0B80E8C0
:010DB200221E
:040E20008A0A8B0BA4
:100E2400120EA5AA0CEAD39400400D120D80AC0A50
:080E3400AD0B120E021A80ED55
:010E3C002293
:100CD500120EA5C3EA64809480400B7F2B120E167A
:100CE5008A168B17800E7F2D120E16C3E49BF517FF
:100CF500E49AF516AA15EAD39400400D120D80ACBE
:090D050016AD17120E021A80ED62
:010D0E0022C2
:040D0F008A1F8B208C
:100D1300120EA5AA21EAD3940040297F10120D8256
:100D2300AC1FAD20CFCDCFCECCCE120B1DEF540FC9
:100D3300FEC3940AEE5004243080022437FF120EBF
:040D4300161A80D12B
:010D47002289
:040D48008A248B2549
:100D4C00120EA5AA26EAD394004028EA24FFFDE45B
:100D5C0034FFFC7F027E00120D8CAC24AD25CFCD70
:100D6C00CFCECCCE120B1DEF54012430FF120E1639
:030D7C001A80D208
:010D7F002251
:100EBB00EF1FAC0670011E4C600A7D027CEFDCFE5E
:040ECB00DDFC80ECDE
:010ECF002200
:0D0F0500120E5A7FCC120E747F44020E743F
:100DB300120E5A7FCC120E747FBE120E74120E3DA9
:100DC3008F08120E3DEFFEE508FFFDAC06EC120A9C
:0B0DD30024E4FBFA7980784112090942
:010DDE0022F2
:100E5A00D2B7C2B77FF7DFFED2B77F20DFFEA2B7D5
:090E6A00E433FE7FF7DFFEAF0662
:010E7300225C
:100EE400C2B77E04DEFEEF24FF92B77E18DEFED288
:010EF400B746
:010EF50022DA
:100E8D00C2B77F02DFFED2B77F02DFFEA2B7E43327
:070E9D00FE7F18DFFEAF0627
:010EA400222B
:020E7400AD07C8
:100E7600E4FC7401A804088002C333D8FC5DFF12A9
:060E86000EE40CBC08ECB8
:010E8C002243
:100E3D00E4FDFC120E8DEF600D7401A80408800214
:0C0E4D00C333D8FC42050CBC08E9AF051B
:010E59002276
:10080000EC4D6011E8497017ED33EC3304600DE4F2
:10081000FCFFFEFD22E933E8330470F8020AC91236
:100820000A9458046009E4CC248150062850090237
:100830000AD3284003020AD0C0E0EB4A7044B980D2
:1008400006D0E0FB020ABFEF4E701CBD8008EBFF34
:10085000EAFEE9FD80EBE98DF0A4FEE5F00208E98F
:10086000E9CDF9EAFEEBFFEF89F0A4FCE5F0CE89D3
:10087000F0A42EFFE435F0CD89F0A42DFEE435F090
:100880008067EF4E7005BD80D780C3EF8BF0A4ACBE
:10089000F0EE8BF0A42CFCE435F0F8EF8AF0A42CF9
:1008A000E5F038FCE433CB8DF0A42CFCE5F03BF80C
:1008B000EE8AF0A42CFCE5F038F8E433CF89F0A4FC
:1008C0002CFCE5F038CF3400CE89F0A42FFFE5F002
:1008D0003EFEE433C98DF0A42EFEE5F039CD8AF05A
:1008E000A42FFFE5F03EFEE43DFD33D0E0FB5007D2
:1008F0000BBB000F020AD3EC2CFCEF33FFEE33FEF0
:06090000ED33FD020AAB1D
:10090600020AD3EC5D046005E859047003020AC9C3
:10091600120A94580460F6EC4860F2EC7004FDFE8E
:10092600FF22C860DB2481C85009C39860025006C4
:10093600020AD09850CAF582E9294B4A7005AB8263
:10094600020ABF75F0007C1A7880C3EF9BEE9AED21
:1009560099400DC3EF9BFFEE9AFEED99FDE842F03C
:10096600DC23ACF0D0E0FFD0E0FED0E0FDAB82208F
:10097600E7101BEB60BAEC2CFCEF33FFEE33FEED19
:1009860033FD020AABE803F830E705C0F075F00066
:10099600EF2FFFEE33FEED33FD40B830E7C280AAFD
:1009A60074F8CC6480CCC86480C8F58204604FC3F8
:1009B600EB9FF5F0EA9E42F0E99D42F0E89C45F097
:1009C600603C501DE5825FFFE582D313CB5BCBF421
:1009D6002B5582FB50280ABA002409B9002008804A
:1009E6001DE5825BFBE582D313CF5FCFF4C3132FE4
:1009F6005582FF50090EBE00050DBD00010CC3EB6C
:100A06009FF5F0EA9E42F0E99D42F0E89C45F060D1
:090A160007CC4820E701B3EC22F3
:100A1F0075F020800E75F010800575F0087D007E52
:100A2F00007F003392D530D503120C40EC334010C9
:100A3F00EF33FFEE33FEED33FDEC33FCD5F0ED225B
:0E0A4F00E5F0247EA2D513CC92E7CDCEFF2297
:100A5D00EDD2E7CD33EC3392D524814006E4FFFE91
:100A6D00FDFC22FCE4CFCECDCC24E0501174FF80F0
:100A7D00EDC3CC13CCCD13CDCE13CECF13CF04708D
:070A8D00F030D5DE020C4041
:100A9400E9D2E7C933E833F892D5EDD2E7CD33ECA8
:070AA40033FC5002B2D52221
:100AAB00EC30E7100FBF000C0EBE00080DBD0004AC
:100ABB000BEB6014A2D5EB13FCED92E7FD2274FF58
:100ACB00FCFDFEFF22E480F8A2D574FF13FC7D80B1
:030ADB00E480EFC5
:03000000020F12DA
:0C0F1200787FE4F6D8FD758126020C4EB5
:100ADE00BB010CE58229F582E5833AF583E02250CD
:100AEE0006E92582F8E622BBFE06E92582F8E22217
:0D0AFE00E58229F582E5833AF583E4932231
:100B0B00EF8DF0A4A8F0CF8CF0A428CE8DF0A42EFE
:020B1B00FE22B8
:100B1D00BC000BBE0029EF8DF084FFADF022E4CCBC
:100B2D00F875F008EF2FFFEE33FEEC33FCEE9DEC85
:100B3D00984005FCEE9DFE0FD5F0E9E4CEFD22EDCB
:100B4D00F8F5F0EE8420D21CFEADF075F008EF2F15
:100B5D00FFED33FD4007985006D5F0F222C398FD06
:050B6D000FD5F0EA22A3
:100B720075F008758200EF2FFFEE33FECD33CDCC3A
:100B820033CCC58233C5829BED9AEC99E5829840BD
:100B92000CF582EE9BFEED9AFDEC99FC0FD5F0D69A
:100BA200E4CEFBE4CDFAE4CCF9A88222B800C1B9C4
:100BB2000059BA002DEC8BF084CFCECDFCE5F0CB02
:100BC200F97818EF2FFFEE33FEED33FDEC33FCEB3B
:100BD20033FB10D703994004EB99FB0FD8E5E4F9F6
:100BE200FA227818EF2FFFEE33FEED33FDEC33FCE3
:100BF200C933C910D7059BE99A4007EC9BFCE99AD7
:100C0200F90FD8E0E4C9FAE4CCFB2275F010EF2F1B
:100C1200FFEE33FEED33FDCC33CCC833C810D7071B
:100C22009BEC9AE899400AED9BFDEC9AFCE899F856
:0E0C32000FD5F0DAE4CDFBE4CCFAE4C8F922E9
:0E0C4000C3E49FFFE49EFEE49DFDE49CFC22C5
:00000001FF
