:1009EE00120B9212098D8F29E52964017023052BB4
:1009FE00532B03E52B7002F528E52BB40103752864
:100A0E0032E52BB4020375284BE52BB4030375288E
:0D0A1E0064E52BFD7C007F0112092080C6DD
:03000B00020B09DC
:100B0900C0E0C0F0C0D0758AA4758CFF052AE52A1B
:100B190075F0648485F02AE52AC395285004D2909B
:0B0B29008002C290D0D0D0F0D0E032AB
:060BE800C2A58F80D2A718
:080BEE007F027EEFDEFEDFFC5A
:010BF60022DC
:0A0C0400C2A6120BE8C2A7020BEE15
:100B5700CFCDCFCECCCE12083F7C007D0A12083F06
:040B6700ED2430FF4A
:0A0B6B00D2A6120BE8C2A7020BEE9F
:100BA900AE07BE0104ED148006BE0209ED243F44E0
:060BB90080FF120C042273
:100BD4007F38120C047F0C120C047F06120C047F65
:040BE40001020C04FA
:0A0C0E00AC03120BA9AF04020B6B3C
:060B34008B308A3189328A
:100B3A00120BA9E4FDAB30AA31A9328D827583006C
:0C0B4A00120800FF6006120B6B0D80E922
:010B5600227C
:0C0AD6007F0AEA24FFFDE434FFFC7E00F0
:080AE2008E2C8F2D8C2E8D2F20
:100AEA007F017E00E4FBEBC3952FE52E6480F8744A
:0E0AFA008098500AAC2CAD2D12082D0B80E810
:010B080022CA
:040B75008A1B8B1C30
:100B7900120BA9AA1DEAD39400400D120AD6AC1B88
:080B8900AD1C120B571A80EDA0
:010B91002241
:100A2B00120BA9C3EA64809480400B7F2B120B6BD3
:100A3B008A178B18800E7F2D120B6BC3E49BF51856
:100A4B00E49AF517AA16EAD39400400D120AD6AC15
:090A5B0017AD18120B571A80EDBB
:010A6400226F
:040A65008A208B2137
:100A6900120BA9AA22EAD3940040297F10120AD8AE
:100A7900AC20AD21CFCDCFCECCCE12083FEF540F55
:100A8900FEC3940AEE5004243080022437FF120B6F
:040A99006B1A80D183
:010A9D002236
:040A9E008A258B26F4
:100AA200120BA9AA27EAD394004028EA24FFFDE406
:100AB20034FFFC7F027E00120AE2AC25AD26CFCDC8
:100AC200CFCECCCE12083FEF54012430FF120B6B75
:030AD2001A80D2B5
:010AD50022FE
:100BBF00EF1FAC0670011E4C600A7D027CEFDCFE5D
:040BCF00DDFC80ECDD
:010BD30022FF
:10098D00E4F53320B1137F14FE120BBF30B1FD7FA0
:10099D00147E00120BBF75330120B0147F147E003E
:1009AD00120BBF30B0FD7F147E00120BBF753302EA
:1009BD0020B2147F147E00120BBF30B2FD7F147E67
:1009CD0000120BBF75330320B3147F147E00120B7E
:1009DD00BF30B3FD7F147E00120BBF753304AF33F0
:0109ED0022E7
:0C0BF7000A083F065B4F666D7D077F6FAC
:10092000EF14B40800505490093575F003A4C58342
:1009300025F0C5837302094D0209510209550209C8
:100940005902095D02096502096D020975D2A48088
:100950000ED2A48012D2A48016D2A4801AC2A4D22D
:10096000A3D2A28016C2A4D2A3C2A2800EC2A4C2E5
:10097000A3D2A28006C2A4C2A3C2A274082DF8E624
:0D098000F5807F017E00120BBFE4F58022A0
:100B92005389F0438901758AA4758CFFC28DD28C6A
:070BA200D2A9D2AFC2B922B3
:030000000208945F
:0C089400787FE4F6D8FD7581330208DBA4
:10080000BB010CE58229F582E5833AF583E02250AD
:1008100006E92582F8E622BBFE06E92582F8E222F7
:0D082000E58229F582E5833AF583E4932211
:10082D00EF8DF0A4A8F0CF8CF0A428CE8DF0A42EDF
:02083D00FE2299
:10083F00BC000BBE0029EF8DF084FFADF022E4CC9D
:10084F00F875F008EF2FFFEE33FEEC33FCEE9DEC66
:10085F00984005FCEE9DFE0FD5F0E9E4CEFD22EDAC
:10086F00F8F5F0EE8420D21CFEADF075F008EF2FF6
:10087F00FFED33FD4007985006D5F0F222C398FDE7
:05088F000FD5F0EA2284
:1008A0000209EEE493A3F8E493A34003F68001F277
:1008B00008DFF48029E493A3F85407240CC8C33359
:1008C000C4540F4420C8834004F456800146F6DF28
:1008D000E4800B0102040810204080900BF7E47EB6
:1008E000019360BCA3FF543F30E509541FFEE4931D
:1008F000A360010ECF54C025E060A840B8E493A3E4
:10090000FAE493A3F8E493A3C8C582C8CAC583CA0E
:10091000F0A3C8C582C8CAC583CADFE9DEE780BEC6
:010C030000F0
:00000001FF
