:1009880011083F065B4F666D7D077F6F777C395E88
:0309980079710072
:0C099C007F057E347DC3DDFEDEFCDFFA4B
:0109A800222C
:03091700E4F5A064
:10091A00E4F5A085088012099CF519751A01F51BE2
:10092A00751C01F51D751E01C3E51A9411E51964BC
:10093A0080948050DBB2A2AE1BAF1C7C007D0212F9
:10094A00088CED4C7002B2A3AE1DAF1E7C007D0474
:10095A0012088CED4C7002B2A47408251AF8E6F558
:10096A008012099C051AE51A70020519051CE51C76
:0E097A007002051B051EE51E70AE051D80AA4D
:03000000020800F3
:0C080000787FE4F6D8FD75811E020847E1
:10088C00C2D5EC30E709B2D5E4C39DFDE49CFCEE87
:10089C0030E715B2D5E4C39FFFE49EFE1208C2C335
:1008AC00E49DFDE49CFC80031208C230D507C3E430
:0608BC009FFFE49EFE22F6
:10080C00020917E493A3F8E493A34003F68001F2E2
:10081C0008DFF48029E493A3F85407240CC8C333ED
:10082C00C4540F4420C8834004F456800146F6DFBC
:10083C00E4800B0102040810204080900988E47EBB
:10084C00019360BCA3FF543F30E509541FFEE493B1
:10085C00A360010ECF54C025E060A840B8E493A378
:10086C00FAE493A3F8E493A3C8C582C8CAC583CAA3
:10087C00F0A3C8C582C8CAC583CADFE9DEE780BE5B
:01099B00005B
:1008C200BC000BBE0029EF8DF084FFADF022E4CC1A
:1008D200F875F008EF2FFFEE33FEEC33FCEE9DECE3
:1008E200984005FCEE9DFE0FD5F0E9E4CEFD22ED29
:1008F200F8F5F0EE8420D21CFEADF075F008EF2F73
:10090200FFED33FD4007985006D5F0F222C398FD63
:050912000FD5F0EA2200
:00000001FF
