:0A0B23000223000102210000C1803E
:0B0B1800EF1FAC0670011E4C70F622AF
:100AE0005389F0438901758A66758CFCC28DD28C5E
:050AF000D2A9D2AF22E3
:070B4A00D288D2A8D2AF222D
:080B4200120B4A120AE080FECA
:03000B00020920C7
:10092000C0E0C0D0758A66758CFC0522E522700295
:100930000521C394F4E5219401402A300027752154
:1009400000752200E52425E0F524E52333F523D3C3
:10095000E5249480E5239400400675230075240166
:0A096000E524F4F5A0D0D0D0E03279
:03000300020A48A6
:100A4800C0E0C0D075D000C004C006C0077FE87EF3
:100A580003120B1820B202B200D007D006D004D07F
:040A6800D0D0E032D8
:060B0900C2A58F80D2A7F7
:080B0F007F027EEFDEFEDFFC39
:010B170022BB
:0A0B2E00C2A6120B09C2A7020B0FAA
:100A8F00CFCDCFCECCCE12083F7C007D0A12083FCF
:040A9F00ED2430FF13
:0A0AA300D2A6120B09C2A7020B0F26
:100ACA00AE07BE0104ED148006BE0209ED243F44C0
:060ADA0080FF120B2E222A
:100AF5007F38120B2E7F0C120B2E7F06120B2E7FCA
:040B050001020B2EB0
:0A0B3800AC03120ACAAF04020AA3BC
:060A6C008B298A2A892B68
:100A7200120ACAE4FDAB29AA2AA92B8D827583002A
:0C0A8200120800FF6006120AA30D80E9B4
:010A8E002245
:0C0A15007F0AEA24FFFDE434FFFC7E00B1
:080A21008E258F268C278D28FD
:100A29007F017E00E4FBEBC39528E5276480F87419
:0E0A39008098500AAC25AD2612082D0B80E8DF
:010A4700228C
:040AAD008A118B120D
:100AB100120ACAAA13EAD39400400D120A15AC1106
:080AC100AD12120A8F1A80ED3C
:010AC900220A
:10096A00120ACAC3EA64809480400B7F2B120AA33E
:10097A008A0D8B0E800E7F2D120AA3C3E49BF50EFF
:10098A00E49AF50DAA0CEAD39400400D120A15ACAC
:09099A000DAD0E120A8F1A80ED5A
:0109A3002231
:0409A4008A168B170D
:1009A800120ACAAA18EAD3940040297F10120A171B
:1009B800AC16AD17CFCDCFCECCCE12083FEF540F2B
:1009C800FEC3940AEE5004243080022437FF120A32
:0409D800A31A80D10D
:0109DC0022F8
:0409DD008A1B8B1CCA
:1009E100120ACAAA1DEAD394004028EA24FFFDE4B2
:1009F10034FFFC7F027E00120A21AC1BAD1CCFCD5F
:100A0100CFCECCCE12083FEF54012430FF120AA3FF
:030A11001A80D276
:010A140022BF
:030000000208945F
:0C089400787FE4F6D8FD75812B0208DBAC
:10080000BB010CE58229F582E5833AF583E02250AD
:1008100006E92582F8E622BBFE06E92582F8E222F7
:0D082000E58229F582E5833AF583E4932211
:10082D00EF8DF0A4A8F0CF8CF0A428CE8DF0A42EDF
:02083D00FE2299
:10083F00BC000BBE0029EF8DF084FFADF022E4CC9D
:10084F00F875F008EF2FFFEE33FEEC33FCEE9DEC66
:10085F00984005FCEE9DFE0FD5F0E9E4CEFD22EDAC
:10086F00F8F5F0EE8420D21CFEADF075F008EF2FF6
:10087F00FFED33FD4007985006D5F0F222C398FDE7
:05088F000FD5F0EA2284
:1008A000020B42E493A3F8E493A34003F68001F221
:1008B00008DFF48029E493A3F85407240CC8C33359
:1008C000C4540F4420C8834004F456800146F6DF28
:1008D000E4800B0102040810204080900B23E47E8A
:1008E000019360BCA3FF543F30E509541FFEE4931D
:1008F000A360010ECF54C025E060A840B8E493A3E4
:10090000FAE493A3F8E493A3C8C582C8CAC583CA0E
:10091000F0A3C8C582C8CAC583CADFE9DEE780BEC6
:010B2D0000C7
:00000001FF
