:100FB80070617373776F72643A00202020202020BC
:090FC80000657272007965730086
:0D101F000713313233313233000208000074
:100E2B00BF0105743112082DBF0205743212082D53
:100E3B00BF0305743312082DBF0405743412082D3B
:100E4B00BF0505743512082DBF0605743612082D23
:100E5B00BF0705743712082DBF0805743812082D0B
:100E6B00BF0905743912082DBF0A05743012082DFD
:010E7B002254
:100CB300120FFC7BFF7A0F79B87D017F01020D696A
:100CC300120B2A8F12E51260F7D3940A504A7B0065
:100CD3007A007911120E2B740A2509F8A611050959
:100CE300E5097002050864074508701FF508F50952
:100CF300780A7C00FD7BFF7A0F79C2120B0D7BFF14
:100D03007A0F79C97D0B7F01120F5A7B007A007924
:100D13000A7D017F02120F5A7B007A00790A7D0156
:100D23007F02120F5AE512B40B96780A7C007D00FD
:100D33007B007A007913120A24EF70307BFF7A0F5D
:100D430079CD7D0B7F01120F5AE4F508F509780A76
:100D53007C00FD7BFF7A0F79C2120B0D7B007A00BA
:100D6300790A7D017F02120F5A020CC37BFF7A0FAF
:100D730079C97D0B7F01120F5AE4F508F509780A4A
:100D83007C00FD7BFF7A0F79C2120B0D7B007A008A
:0C0D9300790A7D017F02120F5A020CC386
:100FE700EF1FAC0670011E4C600A7D027CEFDCFE31
:040FF700DDFC80ECB1
:010FFB0022D3
:06101000C2A58F80D2A7EB
:081016007F027EEFDEFEDFFC2D
:01101E0022AF
:0A102D00C2A6121010C2A70210168E
:100F7D00CFCDCFCECCCE1208517C007D0A120851B8
:040F8D00ED2430FF20
:0A0F9100D2A6121010C2A70210161B
:100FD100AE07BE0104ED148006BE0209ED243F44B4
:060FE10080FF12102D221A
:100FFC007F3812102D7F0C12102D7F0612102D7FB2
:04100C000102102DA0
:0A103700AC03120FD1AF04020F91B9
:060F5A008B348A35893654
:100F6000120FD1E4FDAB34AA35A9368D827583000A
:0C0F7000120800FF6006120F910D80E9CE
:010F7C002252
:0C0F27007F0AEA24FFFDE434FFFC7E009A
:080F33008E308F318C328D33BA
:100F3B007F017E00E4FBEBC39533E5326480F874EC
:0E0F4B008098500AAC30AD3112083F0B80E8A0
:010F59002275
:040F9B008A238B24F6
:100F9F00120FD1AA25EAD39400400D120F27AC23CC
:080FAF00AD24120F7D1A80ED44
:010FB7002217
:100E7C00120FD1C3EA64809480400B7F2B120F9128
:100E8C008A1F8B20800E7F2D120F91C3E49BF520BF
:100E9C00E49AF51FAA1EEAD39400400D120F27AC5A
:090EAC001FAD20120F7D1A80ED2C
:010EB500221A
:040EB6008A288B29D2
:100EBA00120FD1AA2AEAD3940040297F10120F29CF
:100ECA00AC28AD29CFCDCFCECCCE120851EF540FDE
:100EDA00FEC3940AEE5004243080022437FF120F16
:040EEA00911A80D108
:010EEE0022E1
:040EEF008A2D8B2E8F
:100EF300120FD1AA2FEAD394004028EA24FFFDE47D
:100F030034FFFC7F027E00120F33AC2DAD2ECFCD0C
:100F1300CFCECCCE120851EF54012430FF120F91E3
:030F23001A80D25F
:010F260022A8
:100B2A00E4F5347590FFC2932097137F14FE120FD9
:100B3A00E73097FD7F147E00120FE7753401209687
:100B4A00147F147E00120FE73096FD7F147E001288
:100B5A000FE77534052095147F147E00120FE730D5
:100B6A0095FD7F147E00120FE77534092094147FD7
:100B7A00147E00120FE73094FD7F147E00120FE7F7
:100B8A0075340D7590FFC2922097147F147E00125F
:100B9A000FE73097FD7F147E00120FE775340220AD
:100BAA0096147F147E00120FE73096FD7F147E00A4
:100BBA00120FE77534062095147F147E00120FE792
:100BCA003095FD7F147E00120FE775340A209414C5
:100BDA007F147E00120FE73094FD7F147E00120FFF
:100BEA00E775340E7590FFC2912097147F147E002A
:100BFA00120FE73097FD7F147E00120FE77534035A
:100C0A002096147F147E00120FE73096FD7F147E23
:100C1A0000120FE77534072095147F147E00120F17
:100C2A00E73095FD7F147E00120FE775340B209490
:100C3A00147F147E00120FE73094FD7F147E001299
:100C4A000FE775340F7590FFC2902097147F147EBA
:100C5A0000120FE73097FD7F147E00120FE77534FC
:100C6A00042096147F147E00120FE73096FD7F143D
:100C7A007E00120FE77534082095147F147E001247
:100C8A000FE73095FD7F147E00120FE775340C20B4
:100C9A0094147F147E00120FE73094FD7F147E00B7
:080CAA00120FE7753410AF349E
:010CB200221F
:03000000020D9F4F
:0C0D9F00787FE4F6D8FD758136020DE681
:10080000BB010CE58229F582E5833AF583E02250AD
:1008100006E92582F8E622BBFE06E92582F8E222F7
:0D082000E58229F582E5833AF583E4932211
:10082D00BB010689828A83F0225002F722BBFE01AA
:02083D00F322A4
:10083F00EF8DF0A4A8F0CF8CF0A428CE8DF0A42ECD
:02084F00FE2287
:10085100BC000BBE0029EF8DF084FFADF022E4CC8B
:10086100F875F008EF2FFFEE33FEEC33FCEE9DEC54
:10087100984005FCEE9DFE0FD5F0E9E4CEFD22ED9A
:10088100F8F5F0EE8420D21CFEADF075F008EF2FE4
:10089100FFED33FD4007985006D5F0F222C398FDD5
:0508A1000FD5F0EA2272
:1008A600E3F5F009E208B5F06D606B80F3E3F5F06F
:1008B60009E608B5F060605E80F387F009E608B5E2
:1008C600F054605280F487F009E208B5F0486046BB
:1008D60080F488828C8387F009E0A3B5F03860360F
:1008E60080F488828C8387F009E493A3B5F02760AF
:1008F6002580F388828C83E3F5F009E0A3B5F01632
:10090600601480F388828C83E3F5F009E493A3B541
:10091600F004600280F20209D1808580E7808E8033
:10092600D2803C8015806C807E809B80B5808B80D9
:10093600A1804F8070803A0209DD89828A83ECFAB1
:10094600E493F5F0A3C8C582C8CCC583CCE493A3D1
:10095600C8C582C8CCC583CCB5F070606E80E1890D
:10096600828A83E493F5F0A3E208B5F05E605C80CA
:10097600F289828A83E0F5F0A3E608B5F04D604B74
:1009860080F389828A83E0F5F0A3E208B5F03C6043
:100996003A80F389828A83E493F5F0A3E608B5F0FA
:1009A6002A602880F2805389828A83ECFAE493F5E0
:1009B600F0A3C8C582C8CCC583CCE0A3C8C582C88D
:1009C600CCC583CCB5F004600280E27FFFB5F002AF
:1009D6000F2240027F012289828A83ECFAE0F5F039
:1009E600A3C8C582C8CCC583CCE0A3C8C582C8CC81
:1009F600C583CCB5F0D560D380E389828A83ECFACF
:100A0600E0F5F0A3C8C582C8CCC583CCE493A3C8DF
:100A1600C582C8CCC583CCB5F0B160AF80E288F0A2
:100A2600ED2402B4040050A3F582EB2402B40400C2
:0B0A36005099232345822390091F7371
:100A4100E709F60870FA8046E709F20870FA803E75
:100A510088828C83E709F0A370FA807EE309F608A7
:100A610070FA8076E309F20870FA806E88828C83CE
:100A7100E309F0A370FA806289828A83E0A3F60811
:100A810070FA805689828A83E0A3F20870FA804A5C
:100A910080D280FA80C680D4806580F28031801057
:100AA10080A680EA809A80A880DA80E280CA8031BC
:100AB10089828A83ECFAE493A3C8C582C8CCC58332
:100AC100CCF0A3C8C582C8CCC583CC70E9800D89A0
:100AD100828A83E493A3F60870F9ECFAA9F0EDFB9E
:100AE1002289828A83ECFAE0A3C8C582C8CCC58377
:100AF100CCF0A3C8C582C8CCC583CC70EA80DD899F
:100B0100828A83E493A3F20870F980CE88F0ED2401
:100B110002B4040050C4F582EB2402B4040050BABC
:090B21002323458223900A9173FD
:100DAB00020CB3E493A3F8E493A34003F68001F29F
:100DBB0008DFF48029E493A3F85407240CC8C33349
:100DCB00C4540F4420C8834004F456800146F6DF18
:100DDB00E4800B010204081020408090101FE47E79
:100DEB00019360BCA3FF543F30E509541FFEE4930D
:100DFB00A360010ECF54C025E060A840B8E493A3D4
:100E0B00FAE493A3F8E493A3C8C582C8CAC583CAFE
:100E1B00F0A3C8C582C8CAC583CADFE9DEE780BEB6
:01102C0000C3
:00000001FF
