:0A0B58000223000102210000C18009
:0B0B4D00EF1FAC0670011E4C70F6227A
:100B15005389F0438901758A66758CFCC28DD28C28
:050B2500D2A9D2AF22AD
:070B7F00D288D2A8D2AF22F8
:080B7700120B7F120B1580FE2A
:03000B00020920C7
:10092000C0E0C0D0758A66758CFC0522E522700295
:100930000521C394F4E5219401402A300027752154
:1009400000752200E52425E0F524E52333F523D3C3
:10095000E5249480E5239400400675230075240166
:10096000E524F4F5A0C3E52294F4E5219401402A9E
:10097000A200B35025752100752200E523C313F5AD
:1009800023E52413F524C39401E523940050067550
:0F0990002300752480E524F4F5A0D0D0D0E03208
:03000300020A7D71
:100A7D00C0E0C0D075D000C004C006C0077FE87EBE
:100A8D0003120B4D20B202B200D007D006D004D015
:040A9D00D0D0E032A3
:060B3E00C2A58F80D2A7C2
:080B44007F027EEFDEFEDFFC04
:010B4C002286
:0A0B6300C2A6120B3EC2A7020B440B
:100AC400CFCDCFCECCCE12083F7C007D0A12083F9A
:040AD400ED2430FFDE
:0A0AD800D2A6120B3EC2A7020B4487
:100AFF00AE07BE0104ED148006BE0209ED243F448B
:060B0F0080FF120B6322BF
:100B2A007F38120B637F0C120B637F06120B637FF5
:040B3A0001020B6346
:0A0B6D00AC03120AFFAF04020AD81D
:060AA1008B298A2A892B33
:100AA700120AFFE4FDAB29AA2AA92B8D82758300C0
:0C0AB700120800FF6006120AD80D80E94A
:010AC3002210
:0C0A4A007F0AEA24FFFDE434FFFC7E007C
:080A56008E258F268C278D28C8
:100A5E007F017E00E4FBEBC39528E5276480F874E4
:0E0A6E008098500AAC25AD2612082D0B80E8AA
:010A7C002257
:040AE2008A118B12D8
:100AE600120AFFAA13EAD39400400D120A4AAC1167
:080AF600AD12120AC41A80EDD2
:010AFE0022D5
:10099F00120AFFC3EA64809480400B7F2B120AD89F
:1009AF008A0D8B0E800E7F2D120AD8C3E49BF50E95
:1009BF00E49AF50DAA0CEAD39400400D120A4AAC42
:0909CF000DAD0E120AC41A80EDF0
:0109D80022FC
:0409D9008A168B17D8
:1009DD00120AFFAA18EAD3940040297F10120A4C7C
:1009ED00AC16AD17CFCDCFCECCCE12083FEF540FF6
:1009FD00FEC3940AEE5004243080022437FF120AFD
:040A0D00D81A80D1A2
:010A110022C2
:040A12008A1B8B1C94
:100A1600120AFFAA1DEAD394004028EA24FFFDE447
:100A260034FFFC7F027E00120A56AC1BAD1CCFCDF4
:100A3600CFCECCCE12083FEF54012430FF120AD895
:030A46001A80D241
:010A4900228A
:030000000208945F
:0C089400787FE4F6D8FD75812B0208DBAC
:10080000BB010CE58229F582E5833AF583E02250AD
:1008100006E92582F8E622BBFE06E92582F8E222F7
:0D082000E58229F582E5833AF583E4932211
:10082D00EF8DF0A4A8F0CF8CF0A428CE8DF0A42EDF
:02083D00FE2299
:10083F00BC000BBE0029EF8DF084FFADF022E4CC9D
:10084F00F875F008EF2FFFEE33FEEC33FCEE9DEC66
:10085F00984005FCEE9DFE0FD5F0E9E4CEFD22EDAC
:10086F00F8F5F0EE8420D21CFEADF075F008EF2FF6
:10087F00FFED33FD4007985006D5F0F222C398FDE7
:05088F000FD5F0EA2284
:1008A000020B77E493A3F8E493A34003F68001F2EC
:1008B00008DFF48029E493A3F85407240CC8C33359
:1008C000C4540F4420C8834004F456800146F6DF28
:1008D000E4800B0102040810204080900B58E47E55
:1008E000019360BCA3FF543F30E509541FFEE4931D
:1008F000A360010ECF54C025E060A840B8E493A3E4
:10090000FAE493A3F8E493A3C8C582C8CAC583CA0E
:10091000F0A3C8C582C8CAC583CADFE9DEE780BEC6
:010B62000092
:00000001FF
