:1008DE00F8E6F8F4F9B6F985FA14FA66FB03FAC8E5
:1008EE0000000100020300000100040500000605DF
:1008FE0002030107070502040201010202020301BD
:10090E0001020202030101020202020202020202BB
:02091E000203D2
:040969000208012C53
:08096100438901D2A9D2AF22A3
:10092000E4FDFCC3ED9FEC9E5015E4FBFA0BBB000D
:0F093000010AEB647B4A70F50DBD00010C80E4F9
:01093F002295
:10088C00120961C2A5E4F9E99008EE9325E024DE93
:10089C00F582E43408F583E493F50A740193F50BBF
:1008AC00E50AF58CE50BF58AD28CE990090793FFE4
:1008BC007E00AC08AD09120940120920C28C7F1EC3
:1008CC007E0012092009B919BE7FD07E07120920BB
:0208DC0080B3E7
:03000B0002095295
:0F095200C0E0E50AF58CE50BF58AB2A5D0E032DE
:03000000020800F3
:0C080000787FE4F6D8FD75810B020847F4
:10094000EF8DF0A4A8F0CF8CF0A428CE8DF0A42ECB
:02095000FE2285
:10080C0002088CE493A3F8E493A34003F68001F26E
:10081C0008DFF48029E493A3F85407240CC8C333ED
:10082C00C4540F4420C8834004F456800146F6DFBC
:10083C00E4800B0102040810204080900969E47EDA
:10084C00019360BCA3FF543F30E509541FFEE493B1
:10085C00A360010ECF54C025E060A840B8E493A378
:10086C00FAE493A3F8E493A3C8C582C8CAC583CAA3
:10087C00F0A3C8C582C8CAC583CADFE9DEE780BE5B
:01096D000089
:00000001FF
